:100000000C942A000C9447000C9447000C94470071
:100010000C9455010C9447000C9447000C94470035
:100020000C9447000C9447000C9447000C94470034
:100030000C9447000C9487010C94B1010C94470078
:100040000C9447000C9447000C9447000C94470014
:100050000C94470011241FBECFE5D8E0DEBFCDBF12
:1000600011E0A0E6B0E0E0EFF5E202C005900D92ED
:10007000AA39B107D9F712E0AAE9B1E001C01D928F
:10008000AE39B107E1F70E948C000C94F6120C9483
:1000900000008091CE01813089F082301CF48823E9
:1000A00031F032C0823099F0893071F519C080E0AA
:1000B0000E94670280E00E946102089581E00E9430
:1000C000670280E00E9461020E94080F089580E0AC
:1000D0000E94670281E00E9461020E94B70E0895AB
:1000E00084E60E94830384E660E00E94950380E03A
:1000F00090E00E9483101092CD0110929D01109209
:100100009C0110922D0208958EE10E9483038EE1DE
:1001100061E00E94950308951F930E94AB0580E95A
:1001200093E068E273E048EB52E00E94670F8EE1D3
:100130000E94E10F80E090E00E94920F80E090E04A
:100140000E9483100E946D02182F0E947802880F6F
:10015000810F8093CE010E949002182F813039F4D4
:1001600081E00E94550210922D021093CD0180E093
:100170000E944301909344028093430281E00E94D5
:1001800043019093500280934F0282E00E9443010A
:1001900090933A028093390287E00E944301909342
:1001A000340280933302809143029091440266E4CA
:1001B0000E94B80E909336028093350280914F02D0
:1001C0009091500266E40E94B80E90933C02809396
:1001D0003B028091390290913A0264E60E94B80E87
:1001E0009093700280936F0280919A0190919B018D
:1001F0008436910508F4BBCF10929B0110929A01AE
:100200008091E6009091E70001969093E70080933B
:10021000E6000E94070F0E94490020912D0233271B
:1002200027FD30958091640090E02817390734F05D
:1002300080E090E00E9483101092CE010E94FF03A4
:100240000E94AD038091E6009091E700885E9D4F8B
:1002500008F48DCF1092E7001092E60088CF1DBC05
:100260001CBC87EE9BE197BD86BD8FB5806A8FBDB4
:100270008EB582618EBD08951ABA1BBA80EC87B91B
:1002800085E886B9089597B18770987F892B87B9DB
:1002900080E0369A3699FECF24B135B18F5F843035
:1002A000C1F724B135B1C90108951F920F920FB65D
:1002B0000F9211248F939F9380919A0190919B01AB
:1002C000019690939B0180939A019F918F910F903B
:1002D0000FBE0F901F90189514BC86E683BD85B5A0
:1002E0008A6185BD89B7806889BF08951DBC1CBC23
:1002F000909160008091610087BD96BD1BBC1ABCC7
:100300008FB5806F8FBD8EB581618EBD08951F92B0
:100310000F920FB60F9211242F938F939F93EF9309
:10032000FF939BB12CB1E0911A02EF5FEF718091C6
:100330001B02E81711F482E008C0892F8871E0934E
:100340001A02F0E0E850FE4F208380931C02FF91D8
:10035000EF919F918F912F910F900FBE0F901F9053
:1003600018951F920F920FB60F9211248F939F939F
:10037000EF93FF939091180280911902981761F002
:10038000E0911902EF5FEF71E0931902F0E0E8529B
:10039000FE4F80818CB901C05598FF91EF919F91DC
:1003A0008F910F900FBE0F901F901895109218020A
:1003B0001092190210921A0210921B0297FF02C0AB
:1003C00082E08BB910BC83E389B988E98AB986E8F1
:1003D00080BD089590911A0280911B02981719F41C
:1003E00020E031E012C0E0911B02EF5FEF71E0937B
:1003F0001B02F0E0E850FE4F308120911C02922F4A
:1004000080E0AC01430F511D9A01C9010895282FC6
:10041000909118029F5F9F71809119029817E1F3E4
:10042000E92FF0E0E852FE4F208390931802559A8E
:100430000895CF93DF93EC0103C021960E94070239
:1004400088818823D1F7DF91CF910895CF93DF93EF
:10045000EC0102C00E940702FE01219684918823CC
:10046000C9F7DF91CF91089540E050E060E27EE46B
:1004700021E030E0FB013197F1F72F5F3F4F253648
:100480003105C1F74F5F5F4F481759078CF3089547
:1004900020E030E040ED57E0FA013197F1F72F5FAF
:1004A0003F4F28173907C4F30895882311F4C198E2
:1004B0000895C19A0895882311F4C2980895C29AA4
:1004C0000895882311F4AA980895AA9A0895882374
:1004D00011F4AB980895AB9A089583B390E080959A
:1004E000909580789070880F892F881F990B0895B8
:1004F00083B390E0809590958074907036E09595E8
:1005000087953A95E1F7089583B390E080959095AB
:100510008072907045E0959587954A95E1F708952A
:1005200083B390E0809590958071907054E095959C
:1005300087955A95E1F70895AF92BF92CF92DF92D7
:10054000FF920F931F93CF93DF932091430230913B
:10055000440280911D0290911E02280F391F309392
:100560001E0220931D02E0914F02F09150028091F3
:100570001F0290912002E80FF91FF0932002E093F0
:100580001F02C0913902D0913A02809121029091CC
:100590002202C80FD91FD0932202C0932102CAB4ED
:1005A000DBB48091230290912402C80ED91ED09210
:1005B0002402C0922302A8B4B9B48091250290917C
:1005C0002602A80EB91EB0922602A09225028091A2
:1005D000E6009091E7006AE070E00E944C11892BE0
:1005E00009F063C0C9016AE070E00E944C11062F57
:1005F000F72E6093AA017093AB01CF016AE070E01F
:100600000E944C11F62F172F6093AC017093AD012F
:10061000CE016AE070E00E944C11462FE72F6093F4
:10062000AE017093AF01C6016AE070E00E944C1108
:100630009B016093B0013093B101C5016AE070E0A5
:100640000E944C116093B2017093B3010093920227
:10065000F0929302F09396021093970240938E02C9
:10066000E0938F0220938A0230938B02609394026E
:100670007093950210921E0210921D021092200299
:1006800010921F0210922202109221021092240254
:100690001092230210922602109225028091CD0121
:1006A000813019F482E08093CD01DF91CF911F91C9
:1006B0000F91FF90DF90CF90BF90AF900895282FBB
:1006C0008091E6009091E700622F70E00E944C114B
:1006D000269530E02817390710F4C19A0895C1987B
:1006E0000895282F8091E6009091E700622F70E036
:1006F0000E944C11269530E02817390710F4C29A51
:100700000895C2980895282F8091E6009091E700FF
:10071000622F70E00E944C11269530E028173907AF
:1007200010F4AA9A0895AA980895282F462F809128
:10073000E6009091E700622F70E00E944C11269530
:1007400030E02817390718F4442319F404C044236F
:1007500011F4AB980895AB9A08950E94070C80910C
:10076000C701813019F40E94050906C08091C801B3
:10077000813011F40E94EA058091E6009091E70033
:1007800064E670E00E944C11892B21F410929F01C5
:1007900010929E0120919A0130919B0180919E01BF
:1007A00090919F018217930720F430939F0120932B
:1007B0009E0180919C0190919D018217930720F4E6
:1007C00030939D0120939C018091CA018130B1F446
:1007D00080919C0190919D019093480280934702E3
:1007E0000E94E3061092CA011092C701809147024D
:1007F0009091480290939D0180939C0108950F93DE
:100800001F93CF93DF930E949C022091C0013091EF
:10081000C1018091270290912802280F391F30933F
:10082000280220932702C091C201D091C301809178
:10083000290290912A02C80FD91FD0932A02C0938F
:1008400029020091C4011091C50180912B02909161
:100850002C02080F191F10932C0200932B02809179
:10086000E6009091E7006AE070E00E944C11FC0104
:10087000009709F04BC0C9016AE070E00E94601166
:100880007093B5016093B401CE016AE070E00E94FC
:1008900060117093B7016093B601C8016AE070E01F
:1008A0000E9460117093B9016093B8018091D201E8
:1008B0009091D30190938D0280938C028091D4010A
:1008C0009091D50190939102809390028091D601EE
:1008D0009091D701909399028093980210922802E8
:1008E0001092270210922A021092290210922C02D2
:1008F00010922B021092C1011092C0011092C301FC
:100900001092C2011092C5011092C40180912D0273
:10091000282F332727FD30958091640090E0281719
:1009200039070CF013C18091CD01823008F40EC15B
:10093000E430F10509F493C0E530F10578F4E130D5
:10094000F10509F43CC0E130F105F8F0E230F105C1
:1009500009F451C0339709F0DBC067C0E730F105F7
:1009600009F4B8C0E830F10540F4E530F10509F4C8
:1009700090C0369709F0CCC0A5C0E830F10509F465
:10098000B1C0399709F0C4C0B5C0220F331FC901E7
:1009900080509040609192020E94D9128091620032
:1009A0008B3209F0B5C080912D02992787FD909573
:1009B000880F991F865A9D4F60918C0219C0220F93
:1009C000331FC9018F5F9F4F609193020E94D9121C
:1009D000809162008B3209F09BC080912D02992793
:1009E00087FD9095880F991F855A9D4F60918D02C4
:1009F0000E94D9128DC0220F331FC90188589F4F02
:100A0000609196020E94D912809162008B3209F0A7
:100A10007FC080912D02992787FD9095880F991F9F
:100A20008E529D4F60919002E3CF220F331FC90178
:100A300087589F4F609197020E94D912809162005F
:100A40008B3209F065C080912D02992787FD909522
:100A5000880F991F8D529D4F60919102C9CF220F2F
:100A6000331FC90180519F4F60918E020E94D9129D
:100A7000809162008B3209F04BC080912D02992742
:100A800087FD9095880F991F865B9C4F6091980217
:100A9000AFCF220F331FC9018F509F4F60918F023C
:100AA0000E94D912809162008B3291F580912D02C3
:100AB000992787FD9095880F991F855B9C4F6091C2
:100AC000990296CF220F331FC90188599E4F60911A
:100AD0008A028ECF220F331FC90187599E4F609122
:100AE0008B0286CF220F331FC90180529E4F609127
:100AF00094027ECF220F331FC9018F519E4F609108
:100B000095020E94D91280912D028F5F80932D0251
:100B100020912D02332727FD30958091640090E0CD
:100B20002817390799F480919C0190919D01682FB5
:100B3000809345029093460288E592E00E94D91284
:100B400089E592E0609146020E94D912DF91CF912F
:100B50001F910F910895A19A81B3806781BB0E9474
:100B60002F010E943C0180E895E20E94D6010E947C
:100B70006C0178948CEB92E099BD88BD88EF92E08F
:100B80009BBD8ABD8DE00E94070286E690E00E9430
:100B900019028DE00E94070287B3866087BB84B389
:100BA0008C6084BB84B38F7084BB85B3806F85BB3E
:100BB0000895481759071CF420E030E009C090E080
:100BC000641775070CF491E081E09827292F30E035
:100BD000C9010895CF92DF92EF92FF920F931F9376
:100BE000CF93DF938091C801813009F0E3C08091F9
:100BF000E6009091E70064E670E00E944C118731B6
:100C0000910509F487C08831910530F58930910547
:100C100009F471C08A30910560F48530910509F4BA
:100C200050C08730910509F455C0039709F0C2C040
:100C30005FC08D30910509F467C08E30910520F4B6
:100C40000B9709F0B7C05AC08F30910509F45FC007
:100C5000439709F0AFC048C08732910509F46DC0D1
:100C60008832910560F48132910509F461C08332C4
:100C7000910509F43DC04D9709F09CC04EC08F32DC
:100C8000910581F08033910520F48B9709F092C093
:100C900063C08133910509F487C08336910509F05B
:100CA00089C086C080916300E82EFF24E7FCF094A1
:100CB00067010894C108D10803EA10E0C7E0D0E05A
:100CC0006FC08EE790E00E94190283E890E00E94D6
:100CD000190270C0809133029091340261E572E094
:100CE0004AE050E00E94A81281E592E00E941902B9
:100CF00082EB90E0ECCF8BEA90E0E5CF8091CE01E3
:100D0000992787FD9095EACF80E790E0DCCF0E949D
:100D1000451007C088E790E0D6CF80919C01909164
:100D20009D0161E572E04AE050E00E94A81242C0D5
:100D300081E592E00E94190237C0C7E8D0E0CE01F9
:100D40000E94190288EE90E00E941902249680E029
:100D5000C739D807A1F72EC087E990E00E94190291
:100D600088EE90E00E9419028BE990E00E9419023F
:100D700088EE90E00E9419028FE990E00E9419022B
:100D800088EE90E0A4CFC8010E941902CC15DD05C1
:100D900024F488EE90E00E94190221960C5F1F4F08
:100DA000CE15DF0584F306C08DE00E94070202C065
:100DB0001092C801DF91CF911F910F91FF90EF909A
:100DC000DF90CF9008952F923F924F925F926F9253
:100DD0007F928F929F92AF92BF92CF92DF92EF92CB
:100DE000FF920F931F93CF93DF938DE00E94070232
:100DF0008BEE90E00E94190282EB90E00E941902B3
:100E000088E790E00E94190283E890E00E941902AE
:100E100088E592E00E94D1128093450289E592E034
:100E20000E94D11280934602809145029091460221
:100E300061E572E04AE050E00E94A81281E592E08C
:100E40000E9419028DE00E9407028CEF90E00E9440
:100E50001902809162008B3221F486E291E00E94B7
:100E600019028DE00E94070220E0A22E20E0B22E9F
:100E700015010894211C311C90EFC92E90E0D92E49
:100E800026010894411C511C88E7E82E80E0F82ECA
:100E900037010894611C711C8824992400E010E03B
:100EA00095C1C40161E572E04AE050E00E94A812D9
:100EB00081E592E062EB70E00E94961281E592E09B
:100EC0000E9419028091C901882309F04BC0C50115
:100ED0000E94D11280934502C1010E94D1128093D9
:100EE0004602809145029091460261E572E04AE037
:100EF00050E00E94A81281E592E062EB70E00E944F
:100F0000961281E592E00E941902C6010E94D11258
:100F100080934502C2010E94D112809346028091C3
:100F200045029091460261E572E04AE050E00E947D
:100F3000A81281E592E062EB70E00E94961281E5D2
:100F400092E00E941902C7010E94D11280934502CB
:100F5000C3010E94D1128093460280914502909174
:100F6000460253C0C5010E94D11280934502C101BF
:100F70000E94D112809346028091450290914602D0
:100F800066E40E94B80E61E572E04AE050E00E941B
:100F9000A81281E592E062EB70E00E94961281E572
:100FA00092E00E941902C6010E94D112809345026C
:100FB000C2010E94D1128093460280914502909115
:100FC000460264E60E94B80E61E572E04AE050E035
:100FD0000E94A81281E592E062EB70E00E949612F6
:100FE00081E592E00E941902C7010E94D11280930C
:100FF0004502C3010E94D1128093460280914502AE
:101000009091460266E40E94B80E61E572E04AE003
:1010100050E00E94A81281E592E062EB70E00E942D
:10102000961281E592E00E941902C80188599E4FEC
:101030000E94D11280934502E8012196CE01885981
:101040009E4F0E94D112809346028091450290915A
:1010500046020E942010992787FD909561E572E075
:101060004AE050E00E94A81281E592E062EB70E055
:101070000E94961281E592E00E941902C8018052F6
:101080009E4F0E94D11280934502CE0180529E4F06
:101090000E94D112809346028091450290914602AF
:1010A0000E944210992787FD909561E572E04AE021
:1010B00050E00E94A81281E592E062EB70E00E948D
:1010C000961281E592E00E941902809162008B32B3
:1010D00009F066C0C801865A9D4F0E94D1128093C4
:1010E0004102CE01865A9D4F0E94D1128093420246
:1010F000809141029091420261E572E04AE050E045
:101100000E94A81281E592E062EB70E00E949612C4
:1011100081E592E00E941902C8018E529D4F0E9403
:10112000D11280934102CE018E529D4F0E94D11266
:1011300080934202809141029091420261E572E007
:101140004AE050E00E94A81281E592E062EB70E074
:101150000E94961281E592E00E941902C801865B06
:101160009C4F0E94D11280934102CE01865B9C4F1E
:101170000E94D112809342028091410290914202DA
:1011800061E572E04AE050E00E94A81281E592E039
:1011900062EB70E00E94961281E592E00E941902D3
:1011A0008DE00E9407020894811C911C0E5F1F4F66
:1011B00082E090E0A80EB91E280E391EC80ED91E76
:1011C000480E591EE80EF91E680E791E80912D02F8
:1011D000992787FD9095881699060CF462CE8DE0CC
:1011E0000E940702DF91CF911F910F91FF90EF9026
:1011F000DF90CF90BF90AF909F908F907F906F9037
:101200005F904F903F902F9008958091CB0188235D
:1012100009F092C08091E6009091E70068EE73E0DB
:101220000E944C118132910509F452C0823291051D
:10123000A0F489319105B9F18A31910538F48531ED
:10124000910529F1479709F077C024C08B319105AA
:1012500089F14E9709F070C034C08B32910509F4C2
:1012600053C08C32910538F483329105C1F18997CE
:1012700009F062C042C08033910509F453C0813344
:10128000910509F456C08F9709F056C044C080E319
:1012900091E006C08091CF0181FF4EC089E391E0CB
:1012A0000E94190249C08091CF0182FF45C080E4AD
:1012B00091E0F6CF8091CF0183FF3EC087E491E0BB
:1012C000EFCF8091CF0184FF37C08FE491E0E8CF6A
:1012D0008091CF0185FF30C086E591E0E1CF80911C
:1012E0003302909134028E53934030F58EE790E0B4
:1012F0000E9419028CE591E0D3CF8091CF0187FF46
:101300001BC08EE591E0CCCF8091CF0187FF14C048
:1013100082E691E0C5CF8091CF0187FF0DC086E6C0
:1013200091E0BECF8091CF0187FF06C08AE691E0B1
:10133000B7CF8DE00E940702E091E600F091E70050
:10134000CF016AE070E00E944C118430910509F4ED
:101350004AC08530910550F48230910531F18330D7
:10136000910590F5019709F088C010C0863091056D
:1013700009F457C08630910508F444C087309105C0
:1013800009F45EC0089709F078C069C08091A00197
:101390009091A1012091AA013091AB01820F931F7E
:1013A0009093A1018093A00168C08091A2019091C7
:1013B000A3012091AC013091AD01820F931F909356
:1013C000A3018093A20159C08091A4019091A5012D
:1013D0002091AE013091AF01820F931F9093A50130
:1013E0008093A4014AC08091A6019091A701209109
:1013F000B0013091B101820F931F9093A7018093A8
:10140000A6013BC08091A8019091A9012091B20151
:101410003091B301820F931F9093A9018093A8018B
:101420002CC08091BA019091BB012091B401309100
:10143000B501820F931F9093BB018093BA011DC029
:101440008091BC019091BD012091B6013091B7010E
:10145000820F931F9093BD018093BC010EC08091B9
:10146000BE019091BF012091B8013091B901820F66
:10147000931F9093BF018093BE016091650082E34A
:10148000689FB0011124CF010E944C11892B09F0F3
:1014900090C18091CC01882309F48BC18091A00177
:1014A0009091A10165E070E00E944C119B01609356
:1014B000A0013093A1018091A2019091A30165E068
:1014C00070E00E944C117093A3016093A20180917F
:1014D000A4019091A50165E070E00E944C11709309
:1014E000A5016093A4018091A6019091A70165E0F8
:1014F00070E00E944C117093A7016093A601809147
:10150000A8019091A90165E070E00E944C117093D0
:10151000A9016093A8018091BA019091BB0165E097
:1015200070E00E944C117093BB016093BA018091EE
:10153000BC019091BD0165E070E00E944C11709378
:10154000BD016093BC018091BE019091BF0165E037
:1015500070E00E944C117093BF016093BE018091B6
:10156000C9018130F1F4C90166E40E94B80E90937C
:10157000A1018093A0018091A2019091A30166E452
:101580000E94B80E9093A3018093A2018091A401C0
:101590009091A50164E60E94B80E9093A5018093F6
:1015A000A4018091E6009091E70064E670E00E945B
:1015B0004C11CB0161E572E04AE050E00E94A812B4
:1015C00081E592E062EB70E00E94961281E592E084
:1015D0000E9419028091CF0181FF14C08091A00167
:1015E0009091A10161E572E04AE050E00E94A812EA
:1015F00081E592E062EB70E00E94961281E592E054
:101600000E9419028091CF0182FF14C08091A40131
:101610009091A50161E572E04AE050E00E94A812B5
:1016200081E592E062EB70E00E94961281E592E023
:101630000E9419028091CF0183FF14C08091A20102
:101640009091A30161E572E04AE050E00E94A81287
:1016500081E592E062EB70E00E94961281E592E0F3
:101660000E9419028091CF0184FF19C08091A601C8
:101670009091A7010E942010992787FD909561E520
:1016800072E04AE050E00E94A81281E592E062EB2D
:1016900070E00E94961281E592E00E94190280910A
:1016A000CF0185FF19C08091A8019091A9010E94E6
:1016B0004210992787FD909561E572E04AE050E07D
:1016C0000E94A81281E592E062EB70E00E949612FF
:1016D00081E592E00E9419028091330290913402D8
:1016E00023E08E33920780F461E572E04AE050E037
:1016F0000E94A81281E592E062EB70E00E949612CF
:1017000081E592E00E9419028091CF0187FF40C0DD
:101710008091D2019091D30161E572E04AE050E0FE
:101720000E94A81281E592E062EB70E00E9496129E
:1017300081E592E00E9419028091D4019091D50137
:1017400061E572E04AE050E00E94A81281E592E073
:1017500062EB70E00E94961281E592E00E9419020D
:101760008091D6019091D70161E572E04AE050E0A6
:101770000E94A81281E592E062EB70E00E9496124E
:1017800081E592E00E94190287ED90E00E94190223
:101790006091650082E3689FB00111248091E600AA
:1017A0009091E7000E944C11892B19F48DE00E9462
:1017B00007028091E6009091E70062E370E00E94EA
:1017C0004C11892B19F51092A1011092A0011092D1
:1017D000A3011092A2011092A5011092A4011092EF
:1017E000A7011092A6011092A9011092A8011092CF
:1017F000BB011092BA011092BD011092BC0110926F
:10180000BF011092BE0181E08093CC0108950F9337
:101810001F93CF93DF930E94EA019C0190934802AB
:1018200080934702982F20936E0281E02030380782
:1018300051F08091C601E82FF0E0EF58FD4F208372
:101840008F5F8093C6018091C601893110F010929C
:10185000C601903291F4E091C601E13061F0F0E010
:10186000EF58FD4F12923196108281E090E09093F4
:10187000D1018093D0011092C6018091D001909146
:10188000D101019709F06EC28FEF80934E028091D3
:101890006300682F772767FD709520E030E0C0E097
:1018A000D0E04FEF11C021969C91FE01EF58FD4F03
:1018B0008081981721F411969923A9F702C09923E2
:1018C00009F4422F2F5F3F4F2617370764F44F3F2D
:1018D00051F4D901AA0FBB1FAA0FBB1FA957BF4FB5
:1018E000C0E0D0E0E1CF40934E028E018091E6004F
:1018F0009091E70064E670E00E944C11892B09F09A
:1019000031C28DE00E94070283E890E00E94190234
:1019100085E890E00E94190280E20E94070280E2BE
:101920000E94070281E792E00E94190280914E0214
:10193000843009F4CEC085306CF4813001F18230FE
:101940001CF48823A1F0F5C1823009F1833009F03D
:10195000F0C1B2C0863009F420C186300CF4C4C096
:10196000873009F444C1883009F0E3C159C1CE0180
:101970008F589D4F0E9478120E94920FECC1CE01A9
:101980008F589D4F0E9478120E948310E4C11092DC
:10199000CF01809365009091C701913051F4CF58E9
:1019A000DD4F8881882329F41092C7019093C801E4
:1019B00089C081E08093C7011092CC0186EB90E052
:1019C0000E94190282EB90E00E9419028BEA90E0DB
:1019D0000E94190283E890E00E9419028091CE01D2
:1019E000805D0E94070221E092E0F801EF58FD4F70
:1019F0008081823321F4209365000F5F1F4FF8012F
:101A0000EF58FD4F8081813321F4909365000F5F83
:101A10001F4FF801EF58FD4FE081EE2311F0ED323A
:101A200021F48091CF018E6037C0EB3231F4809188
:101A3000CF018E638093CF0126C0EC3621F48091D4
:101A4000CF01826029C0E63721F48091CF01846004
:101A500023C0E23721F48091CF0188601DC0E337B5
:101A600021F48091CF01806117C0E63621F4809186
:101A7000CF01806211C0ED3621F48091CF018064E6
:101A80000BC0EB3259F4F801E059FD4F80818B32E5
:101A900029F48091CF01806C8093CF010F5F1F4F9D
:101AA000F801EF58FD4F8081882309F454C10A30B2
:101AB00011050CF49ACF4FC18091C901813029F4EE
:101AC0001092C9018AEB90E044C181E08093C90182
:101AD000A4C08091CA01813019F41092CA01F2CFDA
:101AE00081E08093CA0199C01092C60186EB90E014
:101AF0000E94190210922D0281E08093CD018FE6A1
:101B0000809362008CE380936400FE01EF58FD4FE8
:101B10001081812F8153863018F01B3281F50FC060
:101B2000CF010E9478129C0173E0880F991F7A956B
:101B3000E1F7220F331F820F931F80936400FE0191
:101B4000EF58FD4F0181802F8153863078F4CF010B
:101B50000E9478129C0153E0880F991F5A95E1F773
:101B6000220F331F820F931F809364001B3211F0EA
:101B70000B3211F48BE201C08FE6809362008091FA
:101B800062008B3209F0E7C0809164008D3308F465
:101B9000E2C08CE380936400DEC0CF58DD4F8881C3
:101BA00080538A30E8F48093CE0180E00E945B028B
:101BB00081E592E062EB70E00E94A11281E592E083
:101BC0000E9419028BEA90E00E94190283E890E0DB
:101BD0000E9419028091CE01805D0E940702BBC065
:101BE00083E890E00E94190285E890E0AEC0809101
:101BF000CB01813049F41092CB0182EB90E06DE68D
:101C000071E00E94A1125ECF81E08093CB0182EB54
:101C100090E060E771E00E94A11286EB90E099C02D
:101C20008E010F5F1F4FF801EF58FD4FE0818E2F9F
:101C300080538A3020F4C801E0E025E011C0EB3287
:101C400049F0ED3239F082EB90E00E94190288EC05
:101C500090E07FC0E0935102C8010196E1E026E0E8
:101C6000EC01CF58DD4FAE2FBB27A7FDB095AF5A83
:101C7000BD4F05C08D93EF5F2196E2172CF488814C
:101C8000803310F08A33B0F3FF27E7FDF095EF5A69
:101C9000FD4F108281E592E00E947812EC0182EB08
:101CA00090E00E941902E02FFF27E7FDF095E05930
:101CB000FD4F8081823679F08336C1F0813609F597
:101CC000D0934002C0933F028FEA90E00E94190235
:101CD00085E791E01CC0D0933802C09337028FEAA9
:101CE00090E00E94190288E791E011C0D0933E0273
:101CF000C0933D028FEA90E00E9419028BE791E0C9
:101D000006C08FEB90E00E94190282EB90E00E94E7
:101D10001902CE0161E572E04AE050E00E94A8128B
:101D200081E592E062EB70E00E94961281E592E01C
:101D300010C081E592E062EB70E00E94A11281E5A3
:101D400092E00E94190282EB90E00E9419028FEB50
:101D500090E00E9419028DE00E9407021092D101CA
:101D60001092D001DF91CF911F910F9108950895A6
:101D7000AC01262F8FEF413F580719F446E950E098
:101D80000FC0415F5F4F81E69CE5BA010E944C1194
:101D900030E0269FA001279F500D369F500D112443
:101DA000CA0164E670E00E944C11CB010895809155
:101DB0004A0290914B02089520913B0230913C02DF
:101DC0008091350290913602281B390B30936D02B9
:101DD00020936C028091D3009091D4006091D50043
:101DE0007091D600AC01249FC001259F900D349FB7
:101DF000900D11240E946011CB0160934A029093D0
:101E00004B026093D6019093D701089508950895E9
:101E100080916F02909170028E9738F48EEE9FEF52
:101E20000E94831081E090E006C082E190E00E9471
:101E3000831082E090E09093D5018093D4010197C4
:101E400081F40E943D1087FF3DC020913502309102
:101E5000360280913B0290913C028217930790F1E9
:101E60002EC00E943D101816ACF48091350290915E
:101E70003602803A910570F480913B0290913C02C9
:101E8000803A910538F40E94DC0E80914A029091CC
:101E90004B021AC0809135029091360220913B028C
:101EA00030913C02813A910530F0213A310538F009
:101EB00080E090E009C0213A310520F408958AE0DD
:101EC00090E002C086EF9FEF0E94920F089524E0F9
:101ED0008D34920710F08EEE92E090936B02809317
:101EE0006A0281E0443F580728F050934D02409326
:101EF0004C0206C08AE892E090934D0280934C0217
:101F0000CB01845F91408855924028F4709332024F
:101F10006093310208958CEB92E0909332028093AB
:101F2000310208959C01009729F48091310290912B
:101F3000320234C08A3091052CF080914C0290918D
:101F40004D022CC04FEF873F94072CF480916A021A
:101F500090916B0223C0E0913102F0913202181689
:101F600019064CF480914C0290914D02AF01481B30
:101F7000590BCA0106C080916A0290916B028E1BB8
:101F80009F0B66EF7FEF0E946011629FC001639F0D
:101F9000900D729F900D11248E0F9F1F90934802F9
:101FA000809347022091470230914802C901845F23
:101FB00091408955924010F0AA9A08953BBD2ABDE0
:101FC0000895809349020895FC01209131023091D7
:101FD00032028217930711F460E02BC040914C024B
:101FE00050914D028417950711F46AE022C0809148
:101FF0006A0290916B02E817F90711F466EF19C0B5
:102000002E173F0754F4821B930B66EF7FEF0E945D
:102010006011CF01821B930B0AC0C901841B950B71
:102020006AE070E00E946011C9018E1B9F0B0E9444
:102030006011862F08958AB59BB50E94E40F08951C
:102040000E94E40F089522E08C3B920711F460E0B7
:1020500012C023E0883E920711F464E60CC021E030
:102060008039920711F46CE906C08C5B924063E002
:1020700070E00E946011862F089588B599B50E947E
:10208000231008950E9423100895DF93CF9300D06A
:10209000CDB7DEB780919A0290919B02009711F420
:1020A0008EE992E0880F991F44275527481B590B4A
:1020B0009E012F5F3F4F240F351FC9010F900F90D6
:1020C000CF91DF9108950F931F93182F092F88B593
:1020D00099B58C5B924080F088E592E099BD88BD0F
:1020E00084E690E00E9448028CEB92E099BD88BDA6
:1020F00084E690E00E944802812F902F99BD88BD10
:102100001F910F9108959C014196839718F48CEBD1
:1021100092E011C08091490237FD10C0992787FDD8
:10212000909582179307E4F0C901880F991F820FD9
:10213000931F84549D4F99BD88BD0895992787FDAD
:102140009095909581959F4F281739074CF0C901BC
:10215000880F991F820F931F84549D4F0E94631014
:102160000895DF93CF93CDB7DEB766970FB6F89497
:10217000DEBF0FBECDBFDE011A96EEE7F1E08DE0C7
:1021800001900D928150E1F7DE011196EBE8F1E04C
:1021900089E001900D928150E1F70E94EA0180935D
:1021A00047029093480280936E028091D0019091F3
:1021B000D101892BF9F4CE010A960E9419028AB541
:1021C0009BB561E572E04AE050E00E94A81281E50B
:1021D00092E062EB70E00E94961281E592E00E942C
:1021E00019028DE00E94070281E090E09093D101F6
:1021F0008093D00180916E028B3221F08D3209F0F4
:1022000042C012C08AB59BB5855F914030F08AB557
:102210009BB504979BBD8ABD07C08DE00E94070255
:10222000CE0101960E94190280916E028D3291F4C6
:102230008AB59BB58C54944030F48AB59BB504960E
:102240009BBD8ABD07C08DE00E940702CE010196AA
:102250000E941902CE010A960E9419028AB59BB506
:1022600061E572E04AE050E00E94A81281E592E048
:1022700062EB70E00E94961281E592E00E941902E2
:102280008DE00E94070266960FB6F894DEBF0FBE7F
:10229000CDBFCF91DF910895AA1BBB1B51E107C0B1
:1022A000AA1FBB1FA617B70710F0A61BB70B881FE6
:1022B000991F5A95A9F780959095BC01CD01089575
:1022C00097FB092E07260AD077FD04D0E5DF06D05C
:1022D00000201AF4709561957F4F0895F6F7909558
:1022E00081959F4F0895CF93DF93BC018230910574
:1022F00010F462E070E0A0919C02B0919D02ED01AB
:10230000E0E0F0E040E050E021C08881998186174C
:10231000970769F48A819B81309719F093838283B0
:1023200004C090939D0280939C02FE0134C0681704
:10233000790738F44115510519F08417950708F409
:10234000AC01FE018A819B819C01E9012097E9F69D
:1023500041155105A9F1CA01861B970B049708F492
:10236000BA01E0E0F0E02AC08D919C9111978417AA
:102370009507F9F46417750781F412968D919C9175
:102380001397309719F09383828304C090939D0232
:1023900080939C02FD0132964FC0CA01861B970BA9
:1023A000FD01E80FF91F6193719302978D939C9340
:1023B00043C0FD01828193819C01D9011097A1F650
:1023C00080919A0290919B02892B41F48091960111
:1023D0009091970190939B0280939A02409198016B
:1023E000509199014115510541F44DB75EB7809167
:1023F000940190919501481B590B20919A023091BC
:102400009B0224173507B0F4CA01821B930B861771
:10241000970780F0AB014E5F5F4F8417950750F030
:10242000420F531F50939B0240939A02F90161930C
:10243000719302C0E0E0F0E0CF01DF91CF91089509
:10244000CF93DF93009709F450C0EC0122971B82D1
:102450001A82A0919C02B0919D02109709F140E070
:1024600050E0AC17BD0708F1BB83AA83FE012191A0
:102470003191E20FF31FAE17BF0779F48D919C9154
:102480001197280F391F2E5F3F4F398328831296EB
:102490008D919C9113979B838A834115510571F40B
:1024A000D0939D02C0939C0220C012968D919C9166
:1024B0001397AD01009711F0DC01D3CFFA01D3835C
:1024C000C28321913191E20FF31FCE17DF0769F428
:1024D00088819981280F391F2E5F3F4FFA01318380
:1024E00020838A819B8193838283DF91CF9108959A
:1024F000FC0188279927E89421912032E9F32930BB
:1025000010F02E30C8F32B3241F02D3239F468949C
:1025100004C00E94C912820F911D219120532A30BC
:10252000C0F31EF4909581959F4F0895FB01DC0147
:102530000D900020E9F7119701900D920020E1F72E
:102540000895FB01DC0101900D920020E1F7089550
:10255000FB019F01E8944230C4F04532B4F44A30A4
:1025600029F497FB1EF4909581959F4F642F772750
:102570000E944C11805D8A330CF0895D8193CB0100
:102580000097A1F716F45DE251931082C9010C94F3
:10259000E6127AE0979F902D879F802D910D112450
:1025A0000895E199FECF9FBB8EBBE09A99278DB32A
:1025B0000895262FE199FECF9FBB8EBB2DBB0FB692
:1025C000F894E29AE19A0FBE01960895DC01FC01AD
:1025D000672F71917723E1F7329704C07C916D9357
:1025E00070836291AE17BF07C8F30895F894FFCFC8
:1025F000D0076F093C0243432056312E3339200067
:102600006672656552414D005A7A4D617800416BA2
:102610006B75003D003E0073000000660000006C1A
:102620006F6700636D000068610000687300006DF3
:102630006D0000627400006D7900004D6F64006DE4
:1026400079000900000009616E0009617573007569
:102650006E67FC6C74696700756E67FC6C74696703
:102660005F31004300640020000000000000000013
:1026700000000000000001002C2000486973746F06
:102680007279617573676162653A20000D74206923
:102690006E20302C3173096C696E6B7309766F7222
:1026A0006E650972656368747309536572766F09A4
:1026B000466168727200096831096832096833003E
:1026C0000D7420696E207309006C696E6B730900CC
:1026D000766F726E650900726563687473090053E2
:1026E0006572766F09004661687209000900613100
:1026F00009006132090061330900615400090000DA
:102700002020200000613D00623D00633D004E75C9
:1027100072202B202F202D203A20004D6178576504
:0A2720007274200020009E020000E9
:00000001FF
